:020000040800F2
:1000000000C00020012A0008790F00087B0F0008BB
:100010007D0F00087F0F0008810F0008000000001E
:10002000000000000000000000000000830F000836
:10003000850F000800000000870F0008890F0008E6
:10004000512A0008512A0008512A0008512A0008A4
:10005000512A0008512A0008512A0008512A000894
:10006000512A0008512A0008512A0008512A000884
:10007000512A0008512A0008512A0008512A000874
:10008000512A0008512A0008512A0008512A000864
:10009000512A0008512A0008512A0008512A000854
:1000A000512A0008512A0008512A0008512A000844
:1000B000512A00080000000000000000512A00083A
:1000C000512A0008512A0008512A0008512A000824
:1000D000512A0008512A0008512A0008512A000814
:1000E000512A0008512A000800000000000000000A
:1000F0000000000000000000000000000000000000
:1001000000000000512A000800000000512A0008E9
:100110000000000000000000512A0008512A0008D9
:10012000512A0008512A0008512A0008512A0008C3
:10013000512A00080000000000000000000000003C
:10014000512A0008512A0008512A0008512A0008A3
:10015000512A0008512A0008512A0008512A000893
:10016000512A0008512A0008512A00080000000006
:10017000512A0008512A0008512A000800000000F6
:10018000512A0008512A0008512A000800000000E6
:1001900001F0FF01102A2BDB10F0070F08D010F838
:1001A000013B013A8B422DD010F0070F42B3F6D13C
:1001B000F0B441EA012141EA014122F007047FF055
:1001C00000070023F0E80256083C85EA010586EAAC
:1001D000010685FA47F5A3FA87F586FA47F6A5FAE8
:1001E00087F68EB9EED1F0BC01F0FF0102F00702F4
:1001F00032B110F8013B013A83EA010313B1F8D19F
:100200000020704701387047002D06BF354603387F
:10021000073815F0010F07D1013015F4807F02BFB8
:10022000013015F4C03F0130F0BC0138704700BF09
:10023000034613F8012B002AFBD1181A0138704726
:1002400081F0004102E000BF83F0004330B54FEA87
:1002500041044FEA430594EA050F08BF90EA020FF4
:100260001FBF54EA000C55EA020C7FEA645C7FEA87
:10027000655C00F0E2804FEA5454D4EB5555B8BFAA
:100280006D420CDD2C4480EA020281EA030382EA1B
:10029000000083EA010180EA020281EA0303362DAD
:1002A00088BF30BD11F0004F4FEA01314FF4801C80
:1002B0004CEA113102D0404261EB410113F0004F92
:1002C0004FEA03334CEA133302D0524263EB430349
:1002D00094EA050F00F0A780A4F10104D5F1200EE7
:1002E0000DDB02FA0EFC22FA05F2801841F1000142
:1002F00003FA0EF2801843FA05F359410EE0A5F116
:1003000020050EF1200E012A03FA0EFC28BF4CF046
:10031000020C43FA05F3C01851EBE37101F00045FC
:1003200007D54FF0000EDCF1000C7EEB00006EEB09
:100330000101B1F5801F1BD3B1F5001F0CD3490893
:100340005FEA30004FEA3C0C04F101044FEA4452EA
:1003500012F5800F80F09A80BCF1004F08BF5FEA71
:10036000500C50F1000041EB045141EA050130BD51
:100370005FEA4C0C404141EB0101013C28BFB1F563
:10038000801FE9D291F0000F04BF01460020B1FAAE
:1003900081F308BF2033A3F10B03B3F120020CDA81
:1003A0000C3208DD02F1140CC2F10C0201FA0CF05F
:1003B00021FA02F10CE002F11402D8BFC2F1200CC4
:1003C00001FA02F120FA0CFCDCBF41EA0C0190407A
:1003D000E41AA2BF01EB0451294330BD6FEA0404C3
:1003E0001F3C1CDA0C340EDC04F11404C4F12002AE
:1003F00020FA04F001FA02F340EA030021FA04F3C0
:1004000045EA030130BDC4F10C04C4F1200220FA16
:1004100002F001FA04F340EA0300294630BD21FA54
:1004200004F0294630BD94F0000F83F4801306BF1A
:1004300081F480110134013D4EE77FEA645C18BF0E
:100440007FEA655C29D094EA050F08BF90EA020FA5
:1004500005D054EA000C04BF1946104630BD91EA9D
:10046000030F1EBF0021002030BD5FEA545C05D1A0
:100470004000494128BF41F0004130BD14F58004DF
:100480003CBF01F5801130BD01F0004545F0FE4153
:1004900041F470014FF0000030BD7FEA645C1ABF88
:1004A000194610467FEA655C1CBF0B46024650EABF
:1004B000013406BF52EA033591EA030F41F40021EB
:1004C00030BD00BF90F0000F04BF0021704730B571
:1004D0004FF4806404F132044FF000054FF0000146
:1004E00050E700BF90F0000F04BF0021704730B507
:1004F0004FF4806404F1320410F0004548BF4042DC
:100500004FF000013EE700BF42004FEAE2014FEA30
:1005100031014FEA02701FBF12F07F4393F07F4F0B
:1005200081F06051704732F07F4208BF704793F00E
:100530007F4F04BF41F40021704730B54FF4607421
:1005400001F0004521F000411CE700BF50EA010224
:1005500008BF704730B54FF000050AE050EA0102CD
:1005600008BF704730B511F0004502D5404261EB3D
:1005700041014FF4806404F132045FEA915C3FF47E
:10058000D8AE4FF003025FEADC0C18BF03325FEA1B
:10059000DC0C18BF033202EBDC02C2F1200300FACC
:1005A00003FC20FA02F001FA03FE40EA0E0021FAF1
:1005B00002F11444BDE600BF70B54FF0FF0C4CF4DF
:1005C000E06C1CEA11541DBF1CEA135594EA0C0F91
:1005D00095EA0C0F00F0DEF82C4481EA030621EACC
:1005E0004C5123EA4C5350EA013518BF52EA033507
:1005F00041F4801143F4801338D0A0FB02CE4FF0B9
:100600000005E1FB02E506F00042E0FB03E54FF0E8
:100610000006E1FB03569CF0000F18BF4EF0010EE0
:10062000A4F1FF04B6F5007F64F5407404D25FEADC
:100630004E0E6D4146EB060642EAC62141EA55518F
:100640004FEAC52040EA5E504FEACE2EB4F1FD0CD1
:1006500088BFBCF5E06F1ED8BEF1004F08BF5FEA4F
:10066000500E50F1000041EB045170BD06F0004601
:1006700046EA010140EA020081EA0301B4EB5C04AE
:10068000C2BFD4EB0C0541EA045170BD41F48011A6
:100690004FF0000E013C00F3AB8014F1360FDEBFCB
:1006A000002001F0004170BDC4F10004203C35DAA7
:1006B0000C341BDC04F11404C4F1200500FA05F32A
:1006C00020FA04F001FA05F240EA020001F00042CB
:1006D00021F0004110EBD37021FA04F642EB060141
:1006E0005EEA430E08BF20EAD37070BDC4F10C046B
:1006F000C4F1200500FA04F320FA05F001FA04F22F
:1007000040EA020001F0004110EBD37041F100011A
:100710005EEA430E08BF20EAD37070BDC4F1200525
:1007200000FA05F24EEA020E20FA04F301FA05F28D
:1007300043EA020321FA04F001F0004121FA04F235
:1007400020EA020000EBD3705EEA430E08BF20EA05
:10075000D37070BD94F0000F0FD101F0004640003F
:1007600041EB010111F4801F08BF013CF7D041EAC1
:10077000060195F0000F18BF704703F000465200C5
:1007800043EB030313F4801F08BF013DF7D043EA96
:100790000603704794EA0C0F0CEA135518BF95EA4C
:1007A0000C0F0CD050EA410618BF52EA4306D1D1D3
:1007B00081EA030101F000414FF0000070BD50EAF2
:1007C000410606BF1046194652EA430619D094EA7C
:1007D0000C0F02D150EA013613D195EA0C0F05D166
:1007E00052EA03361CBF104619460AD181EA0301BA
:1007F00001F0004141F0FE4141F470014FF0000072
:1008000070BD41F0FE4141F4780170BD70B54FF00C
:10081000FF0C4CF4E06C1CEA11541DBF1CEA13558C
:1008200094EA0C0F95EA0C0F00F0A7F8A4EB05046E
:1008300081EA030E52EA03354FEA013100F0888065
:100840004FEA03334FF0805545EA131343EA12632E
:100850004FEA022245EA111545EA10654FEA0026E3
:100860000EF000419D4208BF964244F1FD0404F59C
:10087000407402D25B084FEA3202B61A65EB0305F8
:100880005B084FEA32024FF480104FF4002CB6EBB5
:10089000020E75EB030E22BFB61A754640EA0C0035
:1008A0005B084FEA3202B6EB020E75EB030E22BF75
:1008B000B61A754640EA5C005B084FEA3202B6EBB6
:1008C000020E75EB030E22BFB61A754640EA9C0075
:1008D0005B084FEA3202B6EB020E75EB030E22BF45
:1008E000B61A754640EADC0055EA060E18D04FEA03
:1008F000051545EA16754FEA06164FEAC30343EAA3
:1009000052734FEAC2025FEA1C1CC0D111F4801F6F
:100910000BD141EA00014FF000004FF0004CB6E768
:1009200011F4801F04BF01430020B4F1FD0C88BF07
:10093000BCF5E06F3FF6AFAEB5EB030C04BFB6EB12
:10094000020C5FEA500C50F1000041EB045170BD05
:100950000EF0004E4EEA113114EB5C04C2BFD4EB32
:100960000C0541EA045170BD41F480114FF0000EB6
:10097000013C90E645EA060E8DE60CEA135594EA32
:100980000C0F08BF95EA0C0F3FF43BAF94EA0C0F35
:100990000AD150EA01347FF434AF95EA0C0F7FF4AA
:1009A00025AF104619462CE795EA0C0F06D152EAFE
:1009B00003353FF4FDAE1046194622E750EA4106E2
:1009C00018BF52EA43067FF4C5AE50EA41047FF4F3
:1009D0000DAF52EA43057FF4EBAE12E74FF0FF3C58
:1009E00006E000BF4FF0010C02E000BF4FF0010C29
:1009F0004DF804CD4FEA410C7FEA6C5C4FEA430CA2
:100A000018BF7FEA6C5C1BD001B050EA410C0CBFF0
:100A100052EA430C91EA030F02BF90EA020F002052
:100A2000704710F1000F91EA030F58BF994208BFB9
:100A300090422CBFD8176FEAE37040F00100704776
:100A40004FEA410C7FEA6C5C02D150EA013C07D1CD
:100A50004FEA430C7FEA6C5CD6D152EA033CD3D018
:100A60005DF8040B704700BF8446104662468C4612
:100A70001946634600E000BF01B5FFF7B7FF002845
:100A800048BF10F1000F01BD4DF808EDFFF7F4FF6E
:100A90000CBF012000205DF808FB00BF4DF808EDF9
:100AA000FFF7EAFF34BF012000205DF808FB00BF1C
:100AB0004DF808EDFFF7E0FF94BF012000205DF83E
:100AC00008FB00BF4DF808EDFFF7CEFF94BF0120F3
:100AD00000205DF808FB00BF4DF808EDFFF7C4FFEC
:100AE00034BF012000205DF808FB00BF4FEA410C35
:100AF0007FEA6C5C02D150EA013C0AD14FEA430C18
:100B00007FEA6C5C02D152EA033C02D14FF0000054
:100B100070474FF0010070474FEA410212F5001292
:100B200015D211D56FF47873B3EB625212D94FEA34
:100B3000C12343F0004343EA505311F0004F23FA1E
:100B400002F018BF404270474FF00000704750EA73
:100B5000013005D111F0004008BF6FF00040704730
:100B60004FF00000704700BF4FEA4102B2F1E0438E
:100B700024BFB3F5001CDCF1FE5C0DD901F0004C84
:100B80004FEAC0024CEA5070B2F1004F40EB8300D4
:100B900008BF20F00100704711F0804F21D113F100
:100BA0003872BCBF01F00040704741F480114FEA39
:100BB0005252C2F11802C2F1200C10FA0CF320FAC2
:100BC00002F018BF40F001004FEAC1234FEAD323DF
:100BD00003FA0CFC40EA0C0023FA02F34FEA430349
:100BE000CCE77FEA625307D150EA01331EBF4FF0D2
:100BF000FE4040F44000704701F0004040F0FE40ED
:100C000040F40000704700BF53B94AB9002908BF3B
:100C100000281CBF4FF0FF314FF0FF3000F00CB840
:100C2000ADF1080C6DE904CE04F024FCDDF804E01D
:100C3000DDE9022304B07047704700BF10B5054CD2
:100C4000237833B9044B13B10448AFF30080012378
:100C5000237010BDD80100200000000030570008AC
:100C600008B5034B1BB103490348AFF3008008BD2F
:100C700000000000DC010020305700082DE9F041A1
:100C80008AB005AD0024059406940794089409944D
:100C90002E4BDA6C42F00402DA64DA6C02F00402E1
:100CA0000192019ADA6C42F08002DA64DA6C02F0A6
:100CB00080020292029ADA6C42F00102DA64DA6C83
:100CC00002F001020392039ADA6C42F00202DA6443
:100CD000DB6C03F002030493049B2246B0214FF027
:100CE000904001F065FD1A4F22464FF400513846FE
:100CF00001F05EFD4FF40058CDF814804FF404135A
:100D0000069307942946134801F06EFCB02305931F
:100D1000012606960794089429464FF0904001F06A
:100D200063FC402305930694079629464FF09040B4
:100D300001F05AFCCDF814800696079408942946D1
:100D4000384601F051FC0AB0BDE8F08100100240C5
:100D5000000400480008004800B583B001904FF03F
:100D6000FF33012201A9034800F0CCFB019803B036
:100D70005DF804FBF401002072B6FEE708B50B48ED
:100D80000B4B03604FF4E133436000238360C36087
:100D900003610C2242618361C3610362436200F01C
:100DA00078FC00B908BDFFF7E7FF00BFF4010020A1
:100DB0000044004008B50C480C4B03604FF4E1338D
:100DC000436000238360C36003610C2242614FF4DF
:100DD00040728261C3610362436200F05AFC00B951
:100DE00008BDFFF7C9FF00BF7C02002000380140AA
:100DF00000B597B04422002105A802F089FC002329
:100E0000009301930293039304934FF4007001F055
:100E1000DDFC20BB022305934FF480720892102260
:100E200009920F931093012211920A221292072223
:100E300013921493159305A800F048FD88B90F2369
:100E4000009303230193002302930393049304214B
:100E5000684601F071F830B917B05DF804FBFFF790
:100E60008BFFFFF789FFFFF787FF000000000000FE
:100E700070B52DED028B00F065FCFFF7B9FFFFF7B1
:100E8000FDFEFFF77BFFFFF795FF00224FF40051B7
:100E9000334801F08DFC334802F05CFB0026FFEE86
:100EA000008A49E018EE100AFFF72EFB2AA3D3E9C7
:100EB0000023FFF7CBF9FFF757FE08EE100A214693
:100EC000294802F0DFFA0135632D23D80024DFED35
:100ED000277AB0EE677A632CE4D827EE077A67EEBC
:100EE000A76A37EE667A37EE087A77EEA77A67EE6A
:100EF000877A77EEA87A67EE076A27EEA76A76EE1A
:100F0000866AB3EE006AF4EEC66AF1EE10FAC9DC46
:100F10000134E0E718EE900AFFF7F6FA0EA3D3E9E2
:100F20000023FFF793F9FFF71FFE08EE900A214612
:100F30000F4802F0A7FA0136632E03D80025BFEE52
:100F4000008AC1E70B4802F005FB01224FF4005173
:100F5000034801F02DFCFEE77B14AE47E17A943F95
:100F600000040048485700085057000800000000DF
:100F70005457000858570008FEE7FEE7FEE7FEE773
:100F8000FEE770477047704708B500F0F1FB08BDF9
:100F900082B00A4B1A6E42F001021A661A6E02F013
:100FA00001020092009A9A6D42F080529A659B6D00
:100FB00003F080530193019B02B070470010024080
:100FC00010B5A2B0044600211D911E911F912091E1
:100FD0002191602205A802F09BFB2368304A9342CE
:100FE00004D0304A93422ED022B010BD0123059385
:100FF00005A801F047F918BB2B4B1A6E42F480424A
:101000001A661A6E02F480420192019ADA6C42F07A
:101010000102DA64DB6C03F001030293029B4FF4DC
:10102000F0531D9302231E9300231F930323209349
:10103000072321931DA94FF0904001F0D5FAD3E783
:10104000FFF79AFED8E70223059305A801F01AF9E5
:1010500010BB154B9A6D42F400329A659A6D02F4FA
:1010600000320392039ADA6C42F00102DA64DB6C1C
:1010700003F001030493049B0C231D9302231E938E
:1010800000231F9303232093072321931DA94FF0CF
:10109000904001F0A9FAA7E7FFF76EFED9E700BF7D
:1010A000003801400044004000100240026852E84D
:1010B000003F23F4907342E800310029F6D1026822
:1010C00002F1080353E8003F23F00103083242E82D
:1010D00000310029F3D1036E012B06D02023C0F884
:1010E00080300023036683667047026852E8003F41
:1010F00023F0100342E800310029F6D1EEE70000AA
:1011000010B5044683680269134342691343C269F8
:10111000134301680868944A02401A430A6022682F
:10112000536823F44053E1680B435360A16922687C
:101130008E4B9A4201D0236A1943936823F430639B
:101140000B43936023688A4A93421FD0894A934293
:1011500030D0894A934246D0844A934255D01022D7
:1011600082498B427AD0E069B0F5004F00F0A6804A
:10117000082A00F20981DFE812F0CE00E200CC007C
:101180000701E500070107010701E80002F55842E1
:10119000D2F8882002F00302032A09D8DFE802F01F
:1011A00002044A060122DBE70422D9E70822D7E736
:1011B0001022D5E702F5E632D2F8882002F00C02C0
:1011C0000C2A0ED8DFE802F0070D0D0D090D0D0DEC
:1011D000380D0D0D0B000022C2E70422C0E70822E3
:1011E000BEE71022BCE702F5E432D2F8882002F014
:1011F0003002202A22D004D812B3102A22D104228D
:10120000AEE7302A20D10822AAE702F5C832D2F888
:10121000882002F44062B2F5006F17D005D8BAB149
:10122000B2F5806F16D104229AE7B2F5406F13D160
:10123000082295E7022293E7022291E702228FE734
:1012400000228DE710228BE7102289E7022287E730
:10125000002285E7102283E7102281E7082A77D849
:10126000DFE802F0087610760D76767605004FF40A
:10127000004008E000F02AFF28B9002085E000F0D7
:10128000D1FAF9E73D48626802EB4203834261D834
:10129000B0EB023F60D8010E00025308C0184FF0B7
:1012A000000341F10001FFF7AFFCA0F54072344BA1
:1012B0009A4253D82368D860002066E0082A4FD8A5
:1012C000DFE802F00721054E244E4E4E0B002B485E
:1012D00003E000F0FBFE002844D06268530803EBF3
:1012E0004003B3FBF2F3A3F110014FF6EF7291420A
:1012F00048D89AB222F00F02C3F342031343226884
:10130000D360002041E000F0F3FEE4E700F08AFA49
:10131000E1E71A4803E000F0D9FE002839D06368FD
:1013200000EB5300B0FBF3F0A0F110024FF6EF73A7
:101330009A4230D8236880B2D860002025E000F0BF
:10134000D7FEEAE700F06EFAE7E74FF40040E6E781
:1013500001201AE0012018E0012016E0012014E02D
:10136000012012E0002010E0F369FFEF0080004050
:101370000038014000440040004800400024F400D0
:10138000FFFC0F00012000E001200023A366E366BC
:1013900010BD0020F9E70120F7E700BF436A13F012
:1013A000080F06D00268536823F40043416B0B43D7
:1013B0005360436A13F0010F06D00268536823F4A8
:1013C0000033816A0B435360436A13F0020F06D067
:1013D0000268536823F48033C16A0B435360436A45
:1013E00013F0040F06D00268536823F48023016BC6
:1013F0000B435360436A13F0100F06D002689368E2
:1014000023F48053816B0B439360436A13F0200FE6
:1014100006D00268936823F40053C16B0B439360BA
:10142000436A13F0400F0AD00268536823F4801314
:10143000016C0B435360036CB3F5801F0BD0436A00
:1014400013F0800F06D00268536823F40023816CE8
:101450000B43536070470268536823F4C003416C28
:101460000B435360EBE72DE9F84305460E4617465C
:101470009946DDF820802B68DC6936EA04040CBF4D
:1014800001240024BC4236D1B8F1FF3FF3D000F074
:101490007BF9A0EB0900404530D8B8F1000F2FD000
:1014A0002B681A6812F0040FE5D0802EE3D0402E8E
:1014B000E1D0DA6912F0080F11D1DA6912F4006F85
:1014C000D9D04FF400621A622846FFF7EFFD2023BF
:1014D000C5F88430002385F8783003200CE0082418
:1014E0001C622846FFF7E2FDC5F88440002385F81A
:1014F0007830012000E00020BDE8F8830320FBE7FE
:101500000320F9E72DE9F04182B01E46C36F202B7E
:1015100056D104460D469046002955D00AB90120FF
:101520004FE00023C0F884302123C36700F02CF97A
:101530000746A4F85080A4F85280A368B3F5805FF2
:1015400002D04FF0000815E023693BB34FF00008CC
:1015500010E02023E367032033E038F8023B2268E1
:10156000C3F308031385B4F8522092B2013A92B241
:10157000A4F85220B4F852309BB293B100963B4687
:10158000002280212046FFF76EFF0028E1D1002DC8
:10159000E3D015F8012B23681A85E4E7A846002557
:1015A000E8E700963B46002240212046FFF75BFF1C
:1015B00010B92023E36704E02023E367032000E061
:1015C000022002B0BDE8F0810120FAE730B583B017
:1015D00004460023C0F8843000F0D6F8054622689F
:1015E000126812F0080F0FD123681B6813F0040F64
:1015F00026D12023E367C4F880300020206660668F
:1016000084F8780003B030BD6FF07E43009303464A
:1016100000224FF400112046FFF725FF0028E3D0F9
:10162000226852E8003F23F0800342E8003100299D
:10163000F6D12023E367002384F878300320E1E724
:101640006FF07E4300932B4600224FF4800120462A
:10165000FFF709FF0028CCD0226852E8003F23F4AE
:10166000907342E800310029F6D1226802F10803A4
:1016700053E8003F23F00103083242E8003100291B
:10168000F3D12023C4F88030002384F8783003207D
:10169000B8E768B310B50446C36F03B32423E36708
:1016A0002268136823F001031360636AE3B92046DC
:1016B000FFF726FD012811D02268536823F49043D8
:1016C00053602268936823F02A03936022681368AA
:1016D00043F0010313602046FFF778FF10BD80F848
:1016E0007830FFF76DFCD9E72046FFF757FEDEE7BD
:1016F00001207047104B1B780BB90120704710B5C3
:1017000004464FF47A70B0FBF3F30C4A1068B0FB58
:10171000F3F001F0F9F868B90F2C01D901200AE0C3
:10172000002221464FF0FF3001F0DEF8044B1C6030
:10173000002000E0012010BD000000200800002073
:101740000400002010B5094A136843F48073136045
:10175000032001F0B7F80020FFF7CCFF10B10124FF
:10176000204610BD0446FFF713FCF9E700200240B5
:10177000034B1B78034A11680B441360704700BF8A
:101780000000002004030020014B1868704700BFD0
:101790000403002030B583B00446204B9B6D13F04A
:1017A000805F0BD001F00AF8B0F5007F17D0802CD5
:1017B0001FD82DD0702C2DD000211BE0174DAB6D04
:1017C00043F08053AB65AB6D03F080530193019BF5
:1017D00000F0F4FFAB6D23F08053AB65E4E7802CA1
:1017E00003D9A02C03D9022104E0002102E0012149
:1017F00000E003210A4A136823F007030B43136038
:10180000136803F007038B4206D1002003B030BDFC
:101810000221EFE70121EDE70120F7E70010024088
:1018200000200240254A9368D26802F0030213F0B8
:101830000C0309D00C2B05D0042B3BD0082B3BD03C
:1018400000200FE0012AF7D11C4A126812F0080F9D
:101850000CD11A4AD2F89420C2F30322184951F845
:10186000220013B10C2B06D000207047134A1268D7
:10187000C2F30312F2E7114BDB6803F00303022B00
:1018800016D0032B00D10F480C49CA68C2F30212CC
:101890000132CB68C3F3062300FB03F3B3FBF2F37F
:1018A000C868C0F3416001304000B3FBF0F07047FE
:1018B0000548E9E7044870470248704700100240B5
:1018C0005C57000800127A000024F400002800F0A1
:1018D0001C83F0B583B00446964B9D6805F00C055B
:1018E000DE6806F00306036813F0100F5AD0E5B166
:1018F0000C2D18D0A369002B00F0BB808D4A136813
:1019000043F001031360FFF73FFF0746894B1B6855
:1019100013F0020F40F09A80FFF736FFC01B022839
:10192000F4D90320FCE2012EE4D1824B1B6813F0B2
:10193000020F03D0A369002B00F0E982206A7D4BDF
:101940001B6813F0080F5BD07A4B1B6803F0F003A1
:1019500098425CD8774B1A6842F008021A601A68FD
:1019600022F0F002216A0A431A605A6822F47F4288
:10197000E16942EA01225A60002D60D0FFF752FF70
:101980006C4B9B68C3F303136B4AD35C03F01F03D8
:10199000D8406A4B18606A4B1868FFF7ABFE002806
:1019A00040F0BE82236813F0010F00F08180082D03
:1019B00075D00C2D71D06368B3F5803F00F097802F
:1019C000B3F5A02F00F099805A4B1A6822F48032A8
:1019D0001A601A6822F480221A606368002B00F0F3
:1019E0009980FFF7D1FE0746524B1B6813F4003F66
:1019F0005ED1FFF7C9FEC01B6428F5D903208FE232
:101A00004C4BD3F894301B0903F0F003A0E7FFF729
:101A1000C1FE002840F07D82464B1A6842F0080261
:101A20001A601A6822F0F002216A0A431A605A68A2
:101A300022F47F42E16942EA01225A609EE7206A6D
:101A4000FFF7A8FE002899D0012069E2394B1A68F7
:101A500042F008021A601A6822F0F002216A0A4372
:101A60001A605A6822F47F42E16942EA01225A6010
:101A700098E7304A136823F001031360FFF784FEF0
:101A800007462C4B1B6813F0020F8BD0FFF77CFE30
:101A9000C01B0228F5D9032042E2032E8BD1254B2F
:101AA0001B6813F4003F03D06368002B00F03382FF
:101AB000236813F0020F58D0042D45D00C2D41D0CF
:101AC000E368002B77D01B4A136843F480731360DC
:101AD000FFF75AFE0646174B1B6813F4806F61D15F
:101AE000FFF752FE801B0228F5D9032018E2114AA5
:101AF000136843F4803313606FE703F18043A3F569
:101B00003C331A6842F480221A601A6842F4803228
:101B10001A6062E7FFF738FE0746064B1B6813F4AE
:101B2000003FC5D0FFF730FEC01B6428F5D9032065
:101B3000F6E100BF001002409457000808000020A2
:101B400004000020022EBBD1A44B1B6813F4806F4D
:101B500003D0E368002B00F0E081A04A536823F033
:101B6000F853216943EA01635360236813F0080FB7
:101B70004CD063699BB3994AD2F8943043F0010387
:101B8000C2F89430FFF700FE0646944BD3F8943029
:101B900013F0020F3AD1FFF7F7FD801B0228F4D9AA
:101BA0000320BDE18D4A536823F0F853216943EACD
:101BB00001635360D9E7894A136823F48073136083
:101BC000FFF7E2FD0646854B1B6813F4806FCCD00F
:101BD000FFF7DAFD801B0228F5D90320A0E17F4A38
:101BE000D2F8943023F00103C2F89430FFF7CCFD13
:101BF00006467A4BD3F8943013F0020F06D0FFF765
:101C0000C3FD801B0228F4D9032089E1236813F067
:101C1000040F7AD0714B9B6D13F0805F36D16F4B00
:101C20009A6D42F080529A659B6D03F08053019348
:101C3000019B01266A4B1B6813F4807F28D0A368A0
:101C4000012B39D0052B3FD0644BD3F8902022F0E4
:101C50000102C3F89020D3F8902022F00402C3F8C8
:101C60009020A368002B3DD0FFF78EFD07465B4B0D
:101C7000D3F8903013F0020F46D1FFF785FDC01B5B
:101C800041F288339842F2D9032049E10026D1E796
:101C9000534A136843F480731360FFF775FD0746DA
:101CA0004F4B1B6813F4807FC9D1FFF76DFDC01B3C
:101CB0000228F5D9032033E1484AD2F8903043F0A6
:101CC0000103C2F89030CCE7444BD3F8902042F0A7
:101CD0000402C3F89020D3F8902042F00102C3F828
:101CE0009020BEE7FFF750FD07463C4BD3F89030FD
:101CF00013F0020F08D0FFF747FDC01B41F28833F5
:101D00009842F2D903200BE1E6B9236813F0200FC3
:101D100035D0636AE3B1314AD2F8983043F0010319
:101D2000C2F89830FFF730FD06462C4BD3F89830B8
:101D300013F0020F23D1FFF727FD801B0228F4D9EF
:101D40000320EDE0254A936D23F080539365DCE793
:101D5000224AD2F8983023F00103C2F89830FFF7F6
:101D600013FD06461D4BD3F8983013F0020F06D032
:101D7000FFF70AFD801B0228F4D90320D0E0A36AF4
:101D8000002B00F0CC80022B17D00C2D00F0CC8063
:101D9000124A136823F080731360FFF7F5FC0446C2
:101DA0000E4B1B6813F0007F00F0A880FFF7ECFCDF
:101DB000001B0228F4D90320B2E0084BDB6803F0D3
:101DC0000301E26A91420DD00C2D00F0AB80034B71
:101DD0001B6813F0806F2FD00120A1E0001002409B
:101DE0000070004003F07002216B0139B2EB011F5B
:101DF000EAD103F4FE42616BB2EB012FE4D103F0B0
:101E00007842A16BB2EBC16FDED103F4C001E26B8B
:101E10005208013AB1EB425FD6D103F0C063226CA5
:101E20005208013AB3EB426FCED1404B1B6813F01E
:101E3000007F49D0002073E03C4A136823F0807390
:101E40001360FFF7A1FC0546384B1B6813F0007FB9
:101E500006D0FFF799FC401B0228F5D903205FE06C
:101E6000324AD36832491940E36A206B013843EAA9
:101E70000013606B43EA0023E06B4008013843EA3B
:101E80004053206C4008013843EA4063A06B43EAAA
:101E9000C0631943D160136843F080731360D36843
:101EA00043F08073D360FFF76FFC04461F4B1B6841
:101EB00013F0007F06D1FFF767FC001B0228F5D95D
:101EC00003202DE000202BE0184B1A6842F08072AE
:101ED0001A60DA6842F08072DA60FFF755FC044657
:101EE000124B1B6813F0007F06D1FFF74DFC031B5C
:101EF000022BF5D9032013E0002011E00B4AD16832
:101F00000C4B0B40D36000200AE0012070470120F9
:101F100006E0012004E0012002E0012000E00020B2
:101F200003B0F0BD0120FBE70120F9E700100240FB
:101F30008C809D01FCFFEEFE002800F0AF8070B5A4
:101F40000D460446594B1B6803F007038B420BD226
:101F5000564A136823F007030B431360136803F01A
:101F600007038B4240F09C80236813F0020F0CD0D3
:101F7000A2684F4B9B6803F0F0039A4205D94C4985
:101F80008B6823F0F0031A438A60236813F0010F73
:101F900039D06368032B09D0022B26D063BB444A97
:101FA000126812F0020F06D1012076E0404A126852
:101FB00012F0007F76D03E498A6822F00302134374
:101FC0008B60FFF7E1FB0646394B9B6803F00C037F
:101FD0006268B3EB820F16D0FFF7D6FB801B41F28D
:101FE00088339842F0D9032057E0314A126812F43E
:101FF000003FE0D1012050E02D4A126812F4806FBA
:10200000D9D1012049E0236813F0020F0CD0A26857
:10201000274B9B6803F0F0039A4205D224498B6852
:1020200023F0F0031A438A60204B1B6803F0070378
:10203000AB420AD91D4A136823F007032B431360F0
:10204000136803F00703AB422ED1236813F0040F8B
:1020500006D0174A936823F4E063E1680B4393606A
:10206000236813F0080F07D0114A936823F46053D4
:10207000216943EAC1039360FFF7D4FB0C4B9B68D3
:10208000C3F303130B4AD35C03F01F03D8400A4B7E
:1020900018600A4B1868FFF72DFB70BD01207047D0
:1020A0000120FAE70120F8E70120F6E700200240CE
:1020B000001002409457000808000020040000208F
:1020C000014B1868704700BF0800002008B5FFF7F3
:1020D000F7FF054B9B68C3F30223044AD35C03F06C
:1020E0001F03D84008BD00BF001002408C570008F5
:1020F00008B5FFF7E5FF054B9B68C3F3C223044A0D
:10210000D35C03F01F03D84008BD00BF001002409D
:102110008C570008F8B504460D46594BDB6813F0A0
:10212000030F18D0564BDB6803F003030268934299
:1021300002D001263046F8BD002A00F09C80504BAA
:10214000DB68C3F3021301334268934201D00126D6
:10215000F0E7002619E00368022B55D0032B5AD074
:10216000012B40F08A80464A126812F0020F5ED0BE
:102170004348C26822F073026168013943EA0113DF
:102180001343C3600026002ED4D13D4A136823F0C8
:1021900080631360FFF7F8FA0746394B1B6813F0AA
:1021A000006F05D0FFF7F0FAC31B022BF5D9032609
:1021B000002EBFD1002D3CD131490B6923F078436B
:1021C00023F4FE43A068E268D20642EA00221343E9
:1021D0000B612B4A136843F080631360FFF7D4FA56
:1021E0000546274B1B6813F0006F05D1FFF7CCFAAB
:1021F000401B0228F5D90326002E9BD1204A1369E3
:10220000A1690B43136195E71D4A126812F4806FB0
:10221000AED101268EE71A4A126812F4003FA7D108
:10222000174A126812F4802FA2D1012682E70126F4
:10223000A9E7012D0FD01248026922F0C06222F4F2
:10224000FE42A16863695B08013B5B0643EA012328
:102250001A430261BDE70A48026922F4C00222F46F
:10226000FE42A16823695B08013B5B0543EA012349
:102270001A430261ADE701265CE701265AE700BF79
:10228000001002402DE9F04182B00446036813F4C7
:10229000006F26D0436CB3F5000F06D0B3F5400FA6
:1022A0001DD09BB1012637461DE0B14AD36843F4E7
:1022B0008033D3600027AE4AD2F8883023F440033D
:1022C000616C0B43C2F8883000260CE0002104301A
:1022D000FFF720FF07460028EDD0064603E0002761
:1022E000E9E700263746236813F4003F6BD0A04B84
:1022F0009B6D13F0805F4CD19D4B9A6D42F08052E4
:102300009A659B6D03F080530193019B4FF0010888
:10231000984A136843F480731360FFF735FA054653
:10232000944B1B6813F4807F05D1FFF72DFA401BF7
:102330000228F5D90327002F40D18D4BD3F89030D8
:1023400013F4407318D0E26D9A4212D0884AD2F842
:10235000903023F44073D2F8901041F48031C2F8E9
:102360009010D2F8901021F48031C2F89010C2F889
:10237000903013F0010F0FD1002F40F0F7807C4A0E
:10238000D2F8903023F44073E16D0B43C2F89030E3
:1023900015E04FF00008BBE7FFF7F6F90546744B70
:1023A000D3F8903013F0020FE6D1FFF7EDF9401BA0
:1023B00041F288339842F2D90327DDE73E46B8F16F
:1023C000000F40F0D980236813F0010F08D0684A4D
:1023D000D2F8883023F00303216A0B43C2F8883017
:1023E000236813F0020F08D0614AD2F8883023F036
:1023F0000C03616A0B43C2F88830236813F0040FA2
:1024000008D05B4AD2F8883023F03003A16A0B432E
:10241000C2F88830236813F0200F08D0544AD2F84D
:10242000883023F44063E16A0B43C2F888302368A4
:1024300013F4007F08D04E4AD2F8883023F44023AA
:10244000E16B0B43C2F88830236813F4806F08D027
:10245000474AD2F8883023F44013216C0B43C2F86A
:102460008830236813F0400F08D0414AD2F88830F2
:1024700023F44053216B0B43C2F88830236813F0D8
:10248000800F08D03A4AD2F8883023F44043616B79
:102490000B43C2F88830236813F4807F08D0344A95
:1024A000D2F8883023F44033A16B0B43C2F8883054
:1024B000236813F4005F0FD02D4AD2F8883023F040
:1024C0004063A16C0B43C2F88830A36CB3F1006F7A
:1024D00058D0B3F1806F5AD0236813F4002F0FD077
:1024E000234AD2F8883023F04063E16C0B43C2F8F2
:1024F0008830E36CB3F1006F51D0B3F1806F53D0EB
:10250000236813F4802F0FD0194AD2F8883023F0B3
:102510004063216D0B43C2F88830236DB3F1006F27
:102520004AD0B3F1806F4CD0236813F4804F0CD0A5
:102530000F4AD2F8883023F04053616D0B43C2F844
:102540008830636DB3F1805F43D0236813F4004F8C
:1025500008D0074AD2F8883023F08043A16D0B439E
:10256000C2F88830304602B0BDE8F0813E4626E72A
:1025700000100240007000401A4A936D23F080530F
:10258000936520E7D36843F48013D360A4E7012167
:10259000201DFFF7BFFD00289ED006469CE7D368AC
:1025A00043F48013D360ABE70121201DFFF7B2FD98
:1025B0000028A5D00646A3E7D36843F48013D36070
:1025C000B2E70121201DFFF7A5FD0028ACD006468B
:1025D000AAE70221201DFFF79DFD0028B5D0064681
:1025E000B3E700BF00100240F0B583B0002362E003
:1025F00085685E000324B44025EA0405CC68B44035
:102600002C438460456825EA0C054C68C4F300142B
:102610009C402C4344605FE0DD08083550F82540BD
:1026200003F0070C4FEA8C0C4FF00F0E0EFA0CFE65
:1026300024EA0E0E0C6904FA0CF444EA0E0440F885
:10264000254060E0042400E0002404FA0EF42C434A
:102650000CF1020C524D45F82C40524CA568D44365
:1026600025EA02064F6817F4801F01D042EA0506EA
:102670004C4DAE60ED6804EA05064F6817F4001F84
:1026800001D042EA0506474DEE606D6804EA050692
:102690004F6817F4003F01D042EA0506414D6E60D5
:1026A0002D682C404E6816F4803F01D042EA0504A4
:1026B0003C4A146001330A6832FA03F46ED04FF0DA
:1026C000010C0CFA03FC1CEA0202F3D04C6804F083
:1026D0000304013C012C8BD94C6804F00304032C47
:1026E0000CD0C4685D004FF0030C0CFA05FC24EA22
:1026F0000C0C8C68AC4044EA0C04C4604C6804F0D8
:102700000304022C88D004684FEA430E4FF0030CF8
:102710000CFA0EFC24EA0C0C4C6804F0030404FAD6
:102720000EF444EA0C0404604C6814F4403FC1D039
:102730001D4C256E45F001052566246E04F001044C
:102740000194019C4FEA930C0CF10205144C54F8CF
:10275000255003F0030E4FEA8E0E0F2404FA0EF4F8
:1027600025EA0405B0F1904F3FF46EAF0F4CA04244
:102770000ED004F58064A0420CD004F58064A04221
:102780000AD004F58064A0423FF45CAF07245CE704
:1027900001245AE7022458E7032456E703B0F0BDAA
:1027A0000000014000040140001002400004004805
:1027B0000AB181617047816270470000024B18685E
:1027C00000F4C060704700BF00700040B0F5007FAB
:1027D0000FD01F4B1B6803F4C063B3F5806F34D078
:1027E0001B4A136823F4C06343F480631360002022
:1027F0007047174B1B6803F4C063B3F5007F20D00C
:10280000134A136823F4C06343F400731360114B3D
:102810001B68322202FB03F30F4AA2FB03239B0C2B
:10282000013300E0013B0A4A526912F4806F01D083
:10283000002BF7D1064B5B6913F4806F03D10020A6
:10284000704700207047032070470020704700BF8A
:10285000007000400800002083DE1B43002808DBD6
:102860000901C9B200F1604000F5614080F8001331
:10287000704700F00F000901C9B2014B19547047AD
:1028800014ED00E000B500F00700C0F1070CBCF14A
:10289000040F28BF4FF0040C031D062B0FD9C31ED5
:1028A0004FF0FF3E0EFA0CF021EA000199400EFABB
:1028B00003FE22EA0E0241EA02005DF804FB002357
:1028C000EEE70000074AD36823F4E0631B041B0C07
:1028D000000200F4E060034343F0BF6343F40033BD
:1028E000D360704700ED00E010B50446054BD86892
:1028F000C0F30220FFF7C6FF01462046FFF7AEFFF8
:1029000010BD00BF00ED00E00138B0F1807F0BD2B8
:102910004FF0E0235861054AF02182F8231000208F
:10292000986107221A6170470120704700ED00E0AE
:10293000034AD2F8883043F47003C2F888307047F5
:1029400000ED00E010B503460C4A0D490D48006843
:1029500040B10C4800680344521A934206D8094A11
:10296000136010BD0748084C0460F2E700F022FF36
:102970000C2303604FF0FF30F3E700BF00C00020DE
:1029800000040000080300205804002001207047C4
:1029900008B500F00FFF162303604FF0FF3008BDAD
:1029A00008B54FF0FF31FFF7F3FFFEE770B50C46B7
:1029B0001646002506E0AFF30080214601F8010B22
:1029C00001350C46B542F6DB304670BD70B50C469D
:1029D0001646002504E014F8010BFEF7BDF9013599
:1029E000B542F8DB304670BD4FF0FF3070474FF412
:1029F00000534B6000207047012070470020704753
:102A0000DFF834D0FFF794FF0C480D490D4A00233E
:102A100002E0D458C4500433C4188C42F9D30A4A93
:102A20000A4C002301E013600432A242FBD300F001
:102A3000C7FEFEF71DFAFEE700C0002000000020E0
:102A4000D8010020085B0008D801002058040020AD
:102A5000FEE72DE9FF4757EC106B002F0C46194697
:102A60003B46BBBF07F100431F4600232D230B70DD
:102A70000D9BDDF830A0914623F02008BCBF324604
:102A80001646B8F1460F05D0B8F1450F00D1013414
:102A9000022100E0032103AB019302AB009347EC5A
:102AA000106B5346224600F03BFFB8F1470F054636
:102AB00019D119F0010F0ED000EB040900220023F8
:102AC00030463946FDF7E0FF08B1CDF80C903022D2
:102AD000039B4B451ED3039B0E9A5B1B284613603A
:102AE00004B0BDE8F087B8F1460F00EB0409E5D16A
:102AF0000378302B0AD10022002330463946FDF7F7
:102B0000C3FF18B9C4F10104CAF80040DAF8003074
:102B10009944D3E7591C03911A70D9E7F7B50029F6
:102B2000BABF49422D232B2309290270437029DDA6
:102B30000DF1070425460A272246B1FBF7F607FBED
:102B40001613303302F8013C0B46632B04F1FF34BB
:102B50003146F1DC3031931E04F8011C411C1C4647
:102B6000AB420AD30DF109039B1AA54238BF0023DB
:102B7000821C1344181A03B0F0BD13F8016B01F85E
:102B8000016FEDE7302330318370C170031DF1E731
:102B90002DE9F04F8DB00C46DDF8588016461F46E3
:102BA000054600F0BDFD036806931846FDF740FB9F
:102BB00000230A93D8F8003094F818A0D4F800B095
:102BC0000790073323F00703B3EC027B8DED047B02
:102BD000C8F80030DDE9048323F0004984ED127B5E
:102BE0009C4B4FF0FF3240464946FDF77FFF70BBDC
:102BF000984B4FF0FF3240464946FDF759FF30BB36
:102C0000DDE9040100220023FDF748FF10B12D2368
:102C100084F84330904A914BBAF1470F8CBF9046ED
:102C20009846032323612BF0040323604FF000092F
:102C3000009733460BAA2146284600F0D1F901300F
:102C400040F08C804FF0FF300DB0BDE8F08FDDE933
:102C5000042310461946FDF749FF40B1059B804A01
:102C6000002BBCBF2D2384F843307E4BD4E7636830
:102C70005A1C0AF0DF093BD1062363604BF48062E3
:102C80000023226003930AABCDE901A309AB0093B3
:102C900061689DED040B0DF123032846FFF7D9FE73
:102CA000B9F1470F0999804629D1C81C02DB636836
:102CB0008B4241DAAAF1020A5FFA8AFA01395246D6
:102CC00004F150000991FFF729FF0A9A1318012A0D
:102CD0008146236102DC2268D20701D501332361DA
:102CE0009DF82330002BA3D02D2384F843309FE799
:102CF000B9F1470FC2D1002BC0D10123BDE7BAF112
:102D0000650FDBD9BAF1660F18D1002963680BDDB6
:102D1000216113B92268D00702D501330B44236126
:102D2000A1654FF00009DBE713B92268D20701D58E
:102D30000233F4E70123F2E74FF0670A0A9B8B4264
:102D400005DC23682161D807EAD54B1CE7E7002999
:102D5000D4BFC1F1020201221344E0E723685A05FF
:102D600007D42369424631462846B84701302BD163
:102D700068E7BAF1650F40F2DD80D4E91201002264
:102D80000023FDF781FE002833D0374A0123314666
:102D90002846B84701303FF455AFDDE909384345CF
:102DA00002DB2368D8070FD5DDE906233146284624
:102DB000B84701303FF446AF4FF0000908F1FF3843
:102DC00004F11A0AC84509DC23689B0700F1038156
:102DD000E0680B9B9842B8BF184635E7012352467E
:102DE00031462846B84701303FF42CAF09F10109BC
:102DF000E8E7099B002B39DC1B4A012331462846B2
:102E0000B84701303FF41EAFDDE9093959EA030341
:102E100002D12368D907D7D5DDE9062331462846F4
:102E2000B84701303FF40EAF4FF0000A04F11A0B1F
:102E3000099B5B42534501DC4B4693E701235A460D
:102E400031462846B84701303FF4FCAE0AF1010A8A
:102E5000EEE700BFFFFFEF7FA8570008A457000868
:102E6000B0570008AC570008B4570008A36DDDF850
:102E700028A05345A8BF5346002B994636DC4FF097
:102E8000000B29EAE97904F11A02A36D0493A3EB7C
:102E900009035B4531DC099B9A453ADC2368DA0774
:102EA00037D4099BAAEB0309049BAAEB03039945BA
:102EB000A8BF9946B9F1000F33DC4FF0000829EAAA
:102EC000E97904F11A0B099BAAEB0303A3EB0903AD
:102ED00043457FF779AF01235A4631462846B84724
:102EE00001303FF4AFAE08F10108ECE7424631464D
:102EF0002846B8470130C2D1A4E60123314628460E
:102F00000492B84701303FF49DAE049A0BF1010BD7
:102F1000BBE7DDE9062331462846B8470130C0D17A
:102F200090E6049A4B46424431462846B847013061
:102F3000C3D187E6DDF828A0BAF1010F01DCDB0779
:102F400036D50123424631462846B84701303FF482
:102F500079AEDDE9062331462846B84701303FF413
:102F600071AED4E91201002200230AF1FF3AFDF705
:102F70008BFDC0B9534608F1010231462846B847D7
:102F800001300CD15EE601235A4631462846B84747
:102F900001303FF457AE08F10108D045F3DB4B4652
:102FA00004F15002DFE64FF0000804F11A0BF4E7D9
:102FB00001234246E1E701234A4631462846B84705
:102FC00001303FF43FAE08F10108E3680B995B1A4A
:102FD0004345F0DCFCE64FF0000804F11909F4E782
:102FE0002DE9F047164698468A680B69DDF820906F
:102FF0009342B8BF1346336091F8432007460C460E
:103000000AB1013333602368990642BF3368023343
:103010003360256815F0060506D104F1190AE36846
:1030200032689B1AAB4226DC94F843302268003B9E
:1030300018BF012392062BD404F1430241463846BF
:10304000C84701301ED02368226903F00603042B11
:1030500002BFE5683368ED1AA3680CBF25EAE57581
:1030600000259342C4BF9B1AED1800261A34B542BE
:103070001AD1002008E00123524641463846C8478D
:10308000013003D14FF0FF30BDE8F0870135C6E7CE
:10309000E1185A1C302081F84300224494F845106E
:1030A00082F843100233C7E70123224641463846DF
:1030B000C8470130E6D00136D9E700002DE9FF47C7
:1030C0000F7E0C9E782F914680460C469A4601F161
:1030D000430207D8622F0AD8002F00F0D280582F61
:1030E00000F0B78004F1420684F842703AE0A7F19C
:1030F0006303152BF6D801A151F823F055310008D0
:1031000069310008E5300008E5300008E5300008C6
:10311000E530000869310008E5300008E5300008B6
:10312000E5300008E53000086932000893310008F6
:103130001F320008E5300008E53000088B32000837
:10314000E530000893310008E5300008E53000085C
:103150002732000833681A1D1B68326004F14206EA
:1031600084F8423001239DE033682068191D3160E6
:10317000060601D51D6803E04506FBD5B3F90050EE
:10318000002D03DA2D236D4284F8433059480A2379
:1031900010E021683368080653F8045B02D449063E
:1031A00048BFADB26F2F5348336059D10823002177
:1031B00084F843106668A660002E05DB21682E4364
:1031C00021F0040121604DD01646B5FBF3F103FB5D
:1031D0001157C75D06F8017D2F46BB420D46F4D955
:1031E000082B0BD12368DF0708D523696168994252
:1031F000DEBF302306F8013C06F1FF36921B226148
:10320000CDF800A04B4603AA21464046FFF7E8FE52
:1032100001304CD14FF0FF3004B0BDE8F087236897
:1032200043F0200323603448782784F845702368EE
:1032300031681F0651F8045B02D45F0648BFADB287
:103240003160D90744BF43F0200323601DB1102330
:10325000ADE72848E9E7236823F020032360F6E779
:103260000A23A4E71646BBE7336825686169181D81
:1032700030602E061B6801D5196002E06806FBD598
:103280001980002323611646BAE733681A1D32609D
:103290001E68626800213046FCF77AFF08B1801B87
:1032A000606063682361002384F84330A8E72369E2
:1032B000324649464046D0470130ABD023689B0791
:1032C00013D4E068039B9842B8BF1846A4E70123D3
:1032D000324649464046D04701309BD00135E3682D
:1032E00003995B1AAB42F2DCEBE7002504F1190607
:1032F000F5E700BFB6570008C7570008002310B510
:103300000446C0E90033C0E9043383608181436629
:10331000C2818361194608225C3000F0F9F90D4B37
:1033200063620D4BA3620D4BE3620D4B23630D4BA8
:1033300024629C4206D003F16802944202D0D0334A
:103340009C4205D104F15800BDE8104000F05CBA81
:1033500010BD00BF6535000887350008BF3500087F
:10336000E53500080C030020024A0349034800F039
:103370006BB800BF0C000020895100081C00002021
:1033800041680C4B994210B5044601D001F0FCFE97
:10339000A168094B994202D0204601F0F5FEE16890
:1033A000064B994204D02046BDE8104001F0ECBE27
:1033B00010BD00BF0C03002074030020DC030020BC
:1033C0000C4B0D4A0D4810B504211A600022FFF77E
:1033D00095FF0A4B01221C46092103F16800FFF703
:1033E0008DFF04F1D0000222BDE810401221FFF74A
:1033F00085BF00BF44040020693300080C0300208F
:10340000014800F002BA00BF4D040020014800F05E
:10341000FDB900BF4D04002010B50446FFF7F0FFD2
:10342000236A1BB1BDE81040FFF7F0BF044B2362D5
:10343000044B1B68002BF5D1FFF7C2FFF2E700BF7A
:1034400081330008440400202DE9F84307468846EC
:1034500014460026D4E90195B9F1010905D524687F
:10346000002CF7D13046BDE8F883AB89012B07D992
:10347000B5F90E30013303D029463846C04706431C
:103480006835E9E70FB407B5064904AB086853F897
:10349000042B8168019301F0DDFC03B05DF804EBBF
:1034A00004B0704718000020036A70B584680546B0
:1034B0000E460BB9FFF7B0FF636EDB0705D4A38997
:1034C000980502D4A06D00F0A0F9A389190702D5D0
:1034D0002369002B35D12146284600F0C5F880B37A
:1034E0004FF0FF35636EDA0705D4A3899B0502D43C
:1034F000A06D00F08BF9284670BD002B04DAA2699C
:10350000934217DB0A2915D023685A1C22601970D0
:10351000A36816F8011F013BA3600029EDD1002B21
:1035200011DA22460A21284600F060F80130D7D08F
:103530000A25D7E72246284600F058F80130E7D19F
:10354000CEE7013EE4E723685A1C22600A221A7083
:10355000EEE70000024B01461868FFF7A5BF00BF69
:103560001800002010B50C46B1F90E1000F0FEF85E
:103570000028ABBF636DA3891B1823F48053ACBF35
:103580006365A38110BD2DE9F0411F468B89DB05E2
:1035900005460C46164605D5B1F90E100223002249
:1035A00000F0D2F8A389B4F90E1023F48053A3815C
:1035B00032463B462846BDE8F04100F0E9B810B578
:1035C0000C46B1F90E1000F0BFF8B4F90C30421CF3
:1035D0000BBF23F4805343F48053A381A38118BF0E
:1035E000606510BDB1F90E1000F09EB8F8B50E463A
:1035F0001446054618B1036A0BB9FFF70DFFA3691E
:10360000A360A3891A0701D5236943B92146284637
:1036100000F02AF818B14FF0FF373846F8BD23689C
:103620002269981A6369F6B28342374605DC21465F
:10363000284601F0A9FD0028EDD1A368013BA36055
:1036400023685A1C22601E706269431C9A4204D08F
:10365000A389DB07E1D50A2EDFD12146284601F0F8
:1036600093FD0028D9D0D6E738B5284B0546186811
:103670000C4618B1036A0BB9FFF7CEFEB4F90C3053
:10368000190721D4DA0607D409222A6043F040033F
:10369000A3814FF0FF3031E0580712D5616B41B183
:1036A00004F14403994202D0284600F021FF002390
:1036B00063630022B4F90C3062602269226023F057
:1036C000240343F00803A381226942B903F4207361
:1036D000B3F5007F03D02146284601F0A1FDB4F9DF
:1036E0000C3013F001020AD00022A260626952423B
:1036F000A261226942B913F08000C7D138BD990791
:1037000058BF6269A260F4E70020F7E718000020C4
:1037100002440346934200D1704703F8011BF9E7C6
:10372000004870475801002038B5064D0023044674
:1037300008462B60FFF758F9431C02D12B6803B1F0
:10374000236038BD4804002038B5074D04460846BC
:10375000114600222A601A46FFF750F9431C02D195
:103760002B6803B1236038BD4804002038B5074DED
:1037700004460846114600222A601A46FFF716F949
:10378000431C02D12B6803B1236038BD48040020DC
:1037900038B5074D04460846114600222A601A46ED
:1037A000FFF714F9431C02D12B6803B1236038BD25
:1037B00048040020014B1868704700BF1800002023
:1037C00070B50D4B0D4D5B1B9C100026A64209D118
:1037D00001F0AEFF0A4D0B4B5B1B9C100026A6426E
:1037E00005D170BD55F8043B98470136EEE755F812
:1037F000043B98470136F2E7F85A0008F85A0008E7
:10380000F85A0008FC5A00087047704770472DE9C5
:10381000F74F03690C69A34207467EDB013C01F1C7
:103820001408A30000F11405009305EB8403019331
:1038300058F8243055F8242001339A4208EB8409C3
:10384000B2FBF3F62ED34FF0000AC446AE46D34681
:103850005CF8043B98B206FB00A0020C1B0C06FBB4
:103860000323DEF8002080B292B2121A5A44DEF826
:1038700000004FEA134A9BB2C3EB224303EB104311
:1038800092B242EA0342E1454EF8042B4FEA234B41
:10389000DED2009BEB582BB9019B043B9D421A469C
:1038A0002FD33C61384601F09FF9002825DB2946DB
:1038B000002058F8042BD1F800C01FFA82FE1FFA2E
:1038C0008CF3A3EB0E030344120CC2EB234202EB76
:1038D0001C429BB243EA0243C14541F8043B4FEA14
:1038E0002240E6D255F8242005EB840322B9043B9C
:1038F0009D421A460BD33C610136304603B0BDE809
:10390000F08F1268043B002ACBD1013CC6E7126855
:10391000043B002AEFD1013CEAE70020EEE700007B
:103920002DE9F04F99B08DED0E0B0C92C269229CDF
:103930000A9157EC106B8146139382B9102000F066
:1039400021FE0246C9F81C0020B9B14BEF21B14855
:1039500001F0E0FC0023C0E901330360C36011689B
:1039600059B152684A60012393408B60484600F089
:10397000FDFED9F81C3000221A60B7F10008B5BF6F
:103980000123002323602360A34BBCBF28F0004821
:10399000CDF83C8033EA08031AD1139AC8F3130810
:1039A00042F20F7358EA0608136000F07485239BF7
:1039B00053B99A4B21E09A4B00930833239A136032
:1039C000009819B0BDE8F08F944B00930333F5E7EE
:1039D0009DED0E7B002251EC170B00238DED067B35
:1039E000FDF752F8824650B1139A01231360239BCE
:1039F00013B1239A8B4B13608B4B0093E0E79DED43
:103A0000060B16AA17A9484601F0A2F95FEA185456
:103A1000169D019000F08280079BCDF850A0C3F363
:103A20001303DDE9060143F07F5343F44013A4F28E
:103A3000FF34194600227D4BFCF706FC6EA3D3E948
:103A40000023FCF7B9FD6EA3D3E90023FCF7FEFBCE
:103A5000064620460F46FCF745FD6BA3D3E900233D
:103A6000FCF7AAFD02460B4630463946FCF7EEFB52
:103A700006460F46FDF750F80022804600233046E8
:103A80003946FDF70BF848B14046FCF72BFD3246AE
:103A90003B46FCF7F9FF08B908F1FF38B8F1160FFB
:103AA00059D8634B03EBC803D3E90023DDE90601D2
:103AB000FCF7F4FF002850D008F1FF3800231293E0
:103AC0002D1B6B1E089343BF0023C5F1010708930C
:103AD0000027B8F1000F42DB089BCDF83480434447
:103AE0000893002309930A9B092B6CD8052BC4BFAC
:103AF000043B0A930A9BA3F10203CCBF00240124D8
:103B0000032B6CD801A252F823F000BFBF3B000882
:103B1000C33B0008853B00086F3B0008179C2C4402
:103B200004F23243202BC1BFC3F1400308FA03F86B
:103B300004F2124326FA03F3D6BFC3F1200348EA86
:103B4000030006FA03F0FCF7BDFC0122A1F1F873B3
:103B5000013C14926DE70123B1E71290B0E7C8F180
:103B6000000309930023A7EB08070D93BBE701238C
:103B70000B930C9B434405930133012B0493B8BF73
:103B8000012306E001230B930C9B002B2ADDCDE9DA
:103B90000433D9F81C000021042202F114059D42CF
:103BA00001F1010623D94160484600F0A1FD0090D3
:103BB000002841D11F4B024640F2AF11C7E6002357
:103BC000E1E70023D4E701240023CDE90A344FF0D4
:103BD000FF33CDE90433002212230C92D9E70123ED
:103BE0000B93F4E70123CDE904331A46F5E75200BD
:103BF0003146D2E7AFF3008061436F63A787D23FBE
:103C0000B3C8608B288AC63FFB799F501344D33FCB
:103C1000E5570008FC5700080000F07FE157000856
:103C2000D8570008B5570008B45700080000F83FFF
:103C3000205900083E580008D9F81C30009A1A6034
:103C4000049B0E2B00F2A180002C00F09E80B8F1A6
:103C5000000F36DD9E4B08F00F0203EBC20318F491
:103C6000807FD3E900AB4FEA281516D0994BDDE9E8
:103C70000601D3E90823FCF7C9FDCDE9020105F0EF
:103C80000F050324934E75B9DDE9020152465B46E8
:103C9000FCF7BCFD82468B462DE09DED067B0224A1
:103CA0008DED027BEEE7E90708D550465946D6E987
:103CB0000023FCF781FC013482468B466D100836E8
:103CC000E1E700F0AD80C8F10005814B814E05F0C1
:103CD0000F0203EBC203D3E90023DDE90601FCF781
:103CE0006BFC2D1182468B4600230224002D40F0F0
:103CF0008C80002BCED1129B002B00F09580764B50
:103D0000002250465946FCF7C9FE002800F08C807E
:103D1000049B002B00F08880059B002B35DD08F10B
:103D2000FF330293504659466C4B0022FCF744FC8B
:103D3000059E82468B4601342046FCF7D3FB524653
:103D40005B46FCF739FC664B0022FCF77FFA044621
:103D5000A1F15075CDE91045002E69D1614B0022CB
:103D600050465946FCF770FA22462B4682468B464F
:103D7000FCF7B2FE002840F09482224605F1004391
:103D800050465946FCF78AFE20BB179B002BC0F219
:103D90006081B8F10E0F00F35C814D4B03EBC8035B
:103DA000D3E900AB0C9B002B80F2EE80049B002B30
:103DB00000F3EA800ED14B4B002250465946FCF7E7
:103DC000FBFB02460B46DDE90601FCF771FE00280D
:103DD00000F06A8200252C460C9B009EDB43029378
:103DE000274600242946484600F0C0FC002F00F07A
:103DF000C1802CB1BC4203D02146484600F0B6FC3D
:103E00003946484600F0B2FCB4E0EA0705D5D6E9E9
:103E10000023FCF7D1FB013401236D10083665E760
:103E2000DDE906AB022466E7049ECDF8088083E74F
:103E3000274B03EBC60353E902010B9B002B55D024
:103E400002460B4600202849FCF7E0FCDDE9102380
:103E5000FCF7FAF9009BCDE910019D191E46594661
:103E60005046FCF759FE0446FCF73CFB02460B4665
:103E700050465946FCF7E8F93034DDE9102306F8DE
:103E8000014B82468B46FCF709FE002872D1524650
:103E90005B4611490020FCF7D7F9DDE91023FCF758
:103EA000FDFD002840F0B680AE423FF46EAFDDE984
:103EB00010010A4B0022FCF77FFB084BCDE91001F3
:103EC000002250465946FCF777FB82468B46C6E7F0
:103ED00020590008F85800080000F03F0000244076
:103EE00000001C40000014400000E03FDDE910230A
:103EF000FCF762FB009B009DCDE910013344159354
:103F000059465046FCF708FE0446FCF7EBFA3034FD
:103F10000B46024659465046FCF796F905F8014B08
:103F2000159B9D4282468B4627D1009B0022DDE9EE
:103F300010011E44B34BFCF789F902460B4650466C
:103F40005946FCF7C9FD002864D1DDE91023AD49CD
:103F50000020FCF779F902460B4650465946FCF71B
:103F60009DFD00283FF411AF334616F8012D302A8D
:103F7000FAD01E46DDF808803AE0A34B0022FCF799
:103F80001BFB82468B46BBE7009E52465B46DDE943
:103F90000601FCF73BFCFCF7BFFD0746FCF7A2FA65
:103FA00052465B46FCF708FB02460B46DDE906017C
:103FB000FCF74AF907F1300C009C06F801CBA6EBA0
:103FC000040C049C644502460B4633D1FCF73EF9D1
:103FD00052465B4604460D46FCF77EFDC0B952468C
:103FE0005B4620462946FCF74FFD08B1FB070FD47E
:103FF0000199484600F0BAFB0023139A337008F188
:1040000001031360239B002B3FF4DAAC1E60D7E45E
:10401000CDF8088033461E4613F8012D392A06D103
:10402000009A9A42F7D1029A01320292302201326A
:104030001A709FE7744B0022FCF7BEFA02460B464B
:10404000CDE9062300220023FCF71EFD00289CD0AA
:10405000CEE70B9A002A00F0E3800A9A012A00F3C7
:10406000C280149A002A00F0BA8003F23343099DFB
:104070003E46089A01211A4448461F44089200F01F
:1040800029FC044656B1089B002B07DDB342089A71
:10409000A8BF3346FF1AF61AD31A0893099B0BB32D
:1040A0000B9B002B00F0C380002D00F0BD8021464B
:1040B0002A46484600F0CEFC019A0146044648468E
:1040C00000F01EFC01998246484600F04FFB099B18
:1040D0005B1B099300F0AE80099A5146484600F0F8
:1040E000B9FC01900121484600F0F4FB0D9B054608
:1040F000002B00F0D7811A460146484600F0AAFC82
:104100000A9B012B054600F39D800E9B002B40F07F
:1041100094800F9BC3F31303002B40F08E800F9B02
:1041200023F000431B0D1B05002B00F08980089B2A
:104130000133013708934FF0010A0D9B002B00F06B
:10414000B7812B6905EB8303186900F077FBC0F199
:104150002000089B184410F01F007ED0C0F12003FF
:10416000042B72DD089BC0F11C0003440744064485
:104170000893002F05DD01993A46484600F0C6FC39
:104180000190089B002B05DD29461A46484600F0A1
:10419000BDFC0546129B002B61D00198294600F01A
:1041A00023FD00285BDA08F1FF3302930199002315
:1041B0000A22484600F0FCFA0B9B0190002B00F00D
:1041C0007981002321460A22484600F0F1FA059B36
:1041D000002B044672DC0A9B022B49DC6EE0169B26
:1041E000C3F1360343E7049B5D1E099BAB420DDB25
:1041F0005D1B049B002BBFF63BAF049BFE1A002304
:1042000037E700BF0000E03F00002440099B0D9A03
:104210000995EB1A1A440D92049B3E46002528E7A7
:10422000099D0B9C3E462DE7DDF804A054E7099A52
:10423000019953E7CDF804A054E74FF0000A7CE75A
:104240009A467AE74FF0000A7BE792D0089A1C332F
:104250001A441F441E4408928BE70346F6E7049B6A
:10426000CDF80880002B23DC05930A9B022B21DD6F
:10427000059B002B7FF4B0AD29460522484600F08F
:1042800097FA01460546019800F0AEFC00287FF73A
:10429000A3AD009E312306F8013B029B013302933C
:1042A0009EE535462C46F4E7049DCDF80880F9E7F5
:1042B000049B05930B9B002B00F00081002E05DD75
:1042C00021463246484600F021FC0446BAF1000F70
:1042D0005AD06168484600F00BFA064628B9824B6E
:1042E000024640F2EF21FFF732BB22690232920010
:1042F00004F10C010C3000F0FFFF0122314648466A
:1043000000F004FC0746009B009A03F1010B059B9B
:10431000134406930E9B03F0010308930BF1FF3344
:10432000294601980493FFF772FA2146059000F19F
:10433000300A019800F058FC3A4680462946484623
:1043400000F06EFCC268064602BB0146019800F010
:104350004BFC024631464846099200F007FADDE977
:10436000092342EA0301089B19435E4610D1BAF1C2
:10437000390F2BD0B8F1000F02DD059B03F1310A94
:10438000049B83F800A02DE52746BCE70122E1E766
:10439000B8F1000F06DB0A9B48EA0308089B58EABD
:1043A000030820D1002AEBDD01990122484600F0E4
:1043B000ADFB2946019000F017FC002803DCDFD19B
:1043C0001AF0010FDCD0BAF1390FD6D1049A392393
:1043D000137033461E46013B16F8012C392A52D081
:1043E00001321A70FEE4002A07DDBAF1390FEDD070
:1043F000049A0AF101031370F4E4069B0BF801AC74
:104400005B452AD0019900230A22484600F0D0F9E2
:10441000BC4201904FF000034FF00A02214648468B
:1044200006D100F0C5F9044607460BF1010B75E70C
:1044300000F0BEF93946044600230A22484600F03F
:10444000B7F90746F1E7059B5E1E002B009BD8BF1E
:1044500000265A1C2746164400240199012248468A
:1044600000F054FB2946019000F0BEFB0028B0DCB0
:1044700002D11AF0010FACD133461E4613F8012DBC
:10448000302AFAD0AEE4009A9A42A3D1029B0133BB
:1044900002933123AFE7239B002B7FF48CAA134BAD
:1044A000FFF7ABBA0A9B012B7FF72FAEDDF834A0E4
:1044B00001204EE6059B002B7FF7D7AE009E0198AA
:1044C0002946FFF7A4F900F1300A009B06F801AB7A
:1044D000F21A059B9342B6DD019900230A22484651
:1044E00000F066F90190EAE73E580008D857000846
:1044F00038B50546002941D051F8043C0C1F002B6B
:10450000B8BFE41800F0E8F81D4A136833B96360D7
:1045100014602846BDE8384000F0E4B8A34208D94A
:10452000206821188B4201BF19685B680918216057
:10453000EDE71A465B680BB1A342FAD9116850182F
:10454000A0420BD120680144501883421160E0D191
:1045500018685B68536008441060DAE702D90C23DE
:104560002B60D6E7206821188B4204BF19685B686E
:10457000636004BF091821605460CAE738BD00BFFA
:1045800054040020024B0146186800F025B800BF13
:104590001800002070B50F4E0C463168054611B961
:1045A00000F09AFE30602146284600F095FE431C3C
:1045B00003D14FF0FF34204670BDC41C24F0030427
:1045C000A042F8D0211A284600F086FE0130F2D130
:1045D000EFE700BF500400202DE9F843CD1C25F083
:1045E000030508350C2D38BF0C25002D064601DBD0
:1045F000A94204D90C2333600020BDE8F883DFF81A
:10460000D48000F069F8D8F800301C4644BB294635
:104610003046FFF7BFFF431C044658D1D8F800408E
:104620002746002F43D1002C4BD023683946304613
:1046300004EB030900F050FE814542D121686D1A58
:1046400029463046FFF7A6FF01303AD023682B44B5
:104650002360D8F800305A6862BBC8F800700FE0D9
:104660002268521B20D40B2A17D96119A342256056
:1046700018BF5960636808BFC8F8001062514B60EA
:10468000304600F02FF804F10B00231D20F0070046
:10469000C21A1CBF1B1AA350AFE76268A3420CBF2B
:1046A000C8F800205A60EBE723466468AEE73C4652
:1046B0007F68B6E71A465B68A342FBD100235360CC
:1046C000DEE70C233360304600F00CF894E7056019
:1046D000D6E700BF540400200148FFF796B800BF9A
:1046E0004C0400200148FFF791B800BF4C040020A3
:1046F00070B5C46905460E4684B91020FFF742FF25
:104700000446E86128B90246164B17486B2100F0B1
:1047100001FE0023C0E901330360C360E36853B9BD
:1047200021220421284600F013FEEB69E060DB68DB
:104730000BB9002070BD53F8260030B1026843F871
:1047400026200023C0E90333F4E7012101FA06F42F
:10475000621D9200284600F0FBFD0028E9D0C0E968
:104760000164EEE7E55700084F58000870B5C669C8
:1047700005460C4676B91020FFF704FF0246E861B3
:1047800020B9094B09488F2100F0C4FDC0E901663A
:104790000660C6603CB1EB696268DB6853F82210C2
:1047A000216043F8224070BDE55700084F580008CB
:1047B0002DE9F0410D6907460C461E4601F1140C27
:1047C0000020DCF8003099B202FB01611E0C0B0CDA
:1047D00002FB063389B2013001EB034185424CF8FC
:1047E000041B4FEA1346ECDC0EB3A368AB4219DCA2
:1047F000616838460131FFF77BFF804628B90246E1
:104800000C4B0D48BA2100F085FD2269023204F1FB
:104810000C0192000C3000F06FFD21463846FFF786
:10482000A5FF444604EB850301355E612561204602
:10483000BDE8F0813E5800084F580008B0F5803FB1
:10484000034636BF030400201020B3F1807F3CBF35
:104850001B020830B3F1805F3CBF1B010430B3F191
:10486000804F3CBF9B000230002B05DB13F0804FD4
:1048700000F1010008BF202070470368024613F0D2
:1048800007000BD0D90721D4980749BF5B089B08C4
:10489000012013605CBF13600220704799B209B910
:1048A0001B0C1020D9B209B908301B0A190704BF24
:1048B0001B090430990704BF9B080230D90703D4B1
:1048C0005B0800F1010003D01360704700207047BF
:1048D0002020704710B50C460121FFF709FF024662
:1048E00028B9054B054840F2451100F013FD01239E
:1048F0004461036110BD00BF3E5800084F580008D6
:104900002DE9F04FD1F81090D2F810A0D14585B024
:104910008846144604DB53460C46CA4690469946E0
:10492000A36861680AEB0906B342B8BF0131FFF71B
:10493000DFFE30B90246454B45484FF4B17100F0F7
:10494000E9FC00F1140505EB86072B460022BB426B
:104950001FD304F1140C08F114010CEB8A0301EBD2
:10496000890202921A1B153A22F0030215349C4266
:1049700088BF00220192029A03918A420CD8002E2D
:1049800003DD57F8043D002B5DD0066105B0BDE89E
:10499000F08F43F8042BDAE7B1F800A0BAF1000F6A
:1049A00024D0E046A9464FF0000E58F8042BD9F861
:1049B00000401FFA82FBA4B20AFB0B444FEA124BE1
:1049C000D9F8002074444FEA124E0AFB0BE202EBC6
:1049D0001442A4B244EA0244434549F8044B4FEA66
:1049E000124EE2D8019AAA18C2F804E0039AB2F86B
:1049F00002800431B8F1000F23D02A68E6469146C0
:104A0000AA464FF0000BBEF8004008FB04B404EBCC
:104A1000194492B242EA04424AF8042B5EF8042B8D
:104A2000DAF800904FEA124B1FFA89F208FB0B22CA
:104A300002EB144273454FEA124BE4D8019C2C1947
:104A40006260043597E7013E99E700BF3E580008D1
:104A50004F5800082DE9F843174612F0030280462C
:104A60000D4607D0264C013A002354F82220FFF7C8
:104A70009FFE0546BF103FD0D8F81C4094B91020C7
:104A8000FFF780FD0446C8F81C0030B902461D4BF4
:104A90001D4840F2B31100F03DFC0023C0E9013392
:104AA0000360C360A66846B940F271214046FFF733
:104AB00011FF0023A060064603602C464FF000095A
:104AC00007F001037F1053B1294632464046FFF7F5
:104AD00017FF214605464046FFF748FE67B130689C
:104AE00038B9324631464046FFF70AFF3060C0F819
:104AF000009006462C46E3E72846BDE8F88300BF51
:104B0000EC580008E55700084F5800082DE9F84F09
:104B10000C464968236903EB6218A36807461546EB
:104B20004FEA621A08F101094B450BDB3846FFF7E3
:104B3000DFFD064648B90246294B2A484FF4EF717B
:104B400000F0E8FB01315B00EEE7002300F1140CFC
:104B500000F110021946534535DB22692AEAEA7A48
:104B60000CEB8A0C04F1140315F01F0E614603EBE5
:104B700082022CD0CEF1200A002518688B4600FA5C
:104B80000EF02843CBF8000053F8045B9A4201F181
:104B9000040125FA0AF5F0D8131B153B23F0030393
:104BA00004F115018A4238BF00239C44CCF804501C
:104BB00005B9C1463846C6F810902146FFF7D6FD24
:104BC0003046BDE8F88F42F8041F0133C3E753F8BD
:104BD000045B0D609A4201F10401F8D8E9E700BFD7
:104BE0003E5800084F5800080A6903460069801AB9
:104BF00030B50ED11433143103EB820401EB820182
:104C000054F8045D51F8042D954203D005D24FF0BD
:104C1000FF3030BDA342F3D3FBE70120F9E70000EA
:104C20002DE9F74F8A460646114650461446FFF7CF
:104C3000DBFF051E12D129463046FFF759FD02461B
:104C400028B9414B40F23721404800F063FB012373
:104C5000C0E90435104603B0BDE8F08FBCBF534631
:104C6000A2463046DAF80410BABF1C4601250025DA
:104C7000FFF73EFD024618B9334B40F24521E3E70A
:104C8000DAF810702669C5600AF1140904F1140EEF
:104C900000F114050AF1100309EB87080EEB8606F4
:104CA0000193AB464FF0000C019B5EF8040B53F8E8
:104CB00004AF01931FFA8AF3194683B2CB1A000C92
:104CC0006344C0EB1A4000EB23409BB243EA00432D
:104CD00076454BF8043B4FEA204CE5D8331B153B97
:104CE000153423F00303A64238BF0023E8184B44D1
:104CF0001C1D04302646A5EB0905464506EB050EAE
:104D00000ED308F10301091B21F00301013398457B
:104D100038BF0021014451F8043D9BB1176199E768
:104D200056F8041BE2464FEA11491CFA81FC514433
:104D300009EB2C4989B241EA09414FEA294CCEF8E6
:104D40000010DAE7013FE6E73E5800084F58000838
:104D50002DE9F7430F46012159EC108B1646FFF75A
:104D6000C7FC044630B90246234B244840F20F31B9
:104D700000F0D0FAC9F30A55C9F313030DB143F497
:104D800080130193B8F1000323D068460093FFF726
:104D900074FD0099D8B1019AC0F1200302FA03F31F
:104DA0000B43C24063610192019BA361002B0CBFC6
:104DB000012202222261A5B1A5F2334505443D60DE
:104DC000C0F135003060204603B0BDE8F08361617A
:104DD000EAE701A8FFF751FD019B63612030012242
:104DE000E8E704EB8203A0F2324038601869FFF76D
:104DF00025FDC0EB4210E5E73E5800084F5800087B
:104E00009368013B002B10B4936008DA9469A342C5
:104E100001DB0A2903D15DF8044BFEF7E7BB1368F9
:104E2000581C1060197008465DF8044B7047F8B5BF
:104E300006460F461446D518AC4201D1002007E0C3
:104E400014F8011B3A463046FFF7DAFF431CF3D152
:104E5000F8BD00002DE9F04F0D469DB01446984670
:104E6000064618B1036A0BB9FEF7D6FA6B6ED9077E
:104E700005D4AB899A0502D4A86DFEF7C6FCAB89B0
:104E80001B0701D52B699BB929463046FEF7ECFB81
:104E900070B16B6EDC0704D54FF0FF301DB0BDE87C
:104EA000F08FAB899805F7D4A86DFEF7AFFCF3E758
:104EB0000023099320238DF82930CDF80C8030236E
:104EC000DFF8AC818DF82A304FF0010923469A466D
:104ED00013F8012B0AB1252AF9D1BAEB040B0BD038
:104EE0005B46224629463046FFF7A1FF013000F01D
:104EF000A780099A5A4409929AF80030002B00F0D2
:104F00009F8000234FF0FF32CDE905230AF1010A0B
:104F1000049307938DF853301A935446052214F8DE
:104F2000011B5348FBF734F9049AD8B9D10644BFA2
:104F300020238DF85330130744BF2B238DF85330B3
:104F40009AF800302A2B15D0079A544600204FF0CB
:104F50000A0C214611F8013B303B092B4BD9B0B16B
:104F6000079214E0A0EB080309FA03F31343049338
:104F7000A246D2E7039B191D1B680391002BBBBF00
:104F80005B4242F0020207930793B8BF0492237872
:104F90002E2B0AD163782A2B32D1039B1A1D1B6852
:104FA000039243EAE37302340593DFF8D4A0217837
:104FB00003225046FBF7ECF838B1049BA0EB0A0043
:104FC0004022824013430134049314F8011B294802
:104FD0008DF828100622FBF7DBF800283FD0264B7F
:104FE0001BBB039B073323F0070308330393099B81
:104FF0003B4409936AE70CFB02320C460120A8E708
:1050000000230134059319464FF00A0C204610F88E
:10501000012B303A092A03D9002BC6D00591C4E7E9
:105020000CFB012104460123F0E703AB00932A4661
:10503000124B04A93046FDF7ABFD0746781CD6D1CC
:105040006B6ED90705D4AB899A0502D4A86DFEF71B
:10505000DDFBAB895B063FF51FAF09981EE703AB8D
:1050600000932A46054B04A93046FEF727F8E4E7EB
:10507000925800089C580008912B00082F4E0008F9
:1050800098580008B1F90C202DE9F04116070546A3
:105090000C4651D44B68002B02DC0B6C002B49DD15
:1050A000E66A002E46D0002312F480522F682B604F
:1050B00031D0626DA389590705D56368D21A636B35
:1050C0000BB1236CD21A0023E66A216A2846B04746
:1050D000421CB4F90C3006D129681D2946D8294A4A
:1050E000CA40D60742D500226260D90422692260F4
:1050F00004D5421C01D12B6803B96065616B2F6038
:10510000C1B104F14403994202D02846FFF7F0F9F7
:10511000002363630EE0216A01232846B04702465C
:10512000501CC7D12B68002BC4D01D2B01D0162BCF
:105130001AD12F6000201EE00F69002FFAD09307CC
:105140000E6808BF4B690F6018BF0023A6EB070865
:105150008B60B8F1000FEDDD216AA66A43463A463E
:105160002846B047002808DCB4F90C3043F040036F
:10517000A3814FF0FF30BDE8F0810744A8EB0008A1
:10518000E7E700BF0100402038B50B6905460C4633
:1051900013B90025284638BD18B1036A0BB9FEF7CC
:1051A0003BF9B4F90C30002BF3D0626ED00704D475
:1051B000990502D4A06DFEF728FB28462146FFF78B
:1051C00061FF636EDA070546E4D4A3899B05E1D449
:1051D000A06DFEF71BFBDDE770B50C46B1F90E10B4
:1051E000002996B015461E460ADAA18911F0800101
:1051F00013D14FF48062002031602A6016B070BD78
:105200006A4600F047F80028EFDB019901F470418D
:10521000A1F5005359425941EBE700214022EAE74A
:105220008B8973B59E0705460C4607D504F14703E5
:10523000236023610123636102B070BD01AB6A4644
:10524000FFF7CAFF009E28463146FFF7C5F9B4F9BB
:105250000C3038B99A05EFD423F0030343F002036E
:10526000A381E3E743F08003A381019B2060C4E9AD
:105270000406002BE0D0B4F90E10284600F01CF80C
:105280000028D9D0A38923F0030343F00103A381AD
:10529000D2E7000038B5074D002304460846114602
:1052A0002B60FDF7A4FB431C02D12B6803B12360E4
:1052B00038BD00BF4804002038B5064D0023044621
:1052C00008462B60FDF798FB431C02D12B6803B105
:1052D000236038BD4804002038B5064D002304463D
:1052E00008462B60FDF72EFB431C02D12B6803B14F
:1052F000236038BD480400200A44914200F1FF3386
:1053000000D1704710B511F8014B03F8014F9142DD
:10531000F9D110BD1FB514461A46094B1B68054646
:10532000D8684CB1074B0091CDE9013406492B46B2
:1053300000F042F800F052F8044B1C46F3E700BFBF
:1053400018000020AD580008BA580008E8580008B6
:1053500070B5A1FB025434B92946FFF73DF9064662
:1053600028B9304670BD0C2202600026F9E72A46B3
:105370002146FEF7CDF9F4E782B001B901A942B1A7
:105380004BB113780B601278101E18BF012002B0C9
:1053900070471046FBE76FF00100F8E70346084648
:1053A00041B1FF2A04D98A221A604FF0FF307047BA
:1053B0000A700120704700000EB403B5014603AB2C
:1053C000054853F8042B00680193FFF743FD02B032
:1053D0005DF804EB03B070471800002008B5062004
:1053E00000F02CF80120FDF7DBFA1F2938B505463F
:1053F0000C4604D9162303604FF0FF3038BDC26B52
:1054000012B152F821304BB9284600F031F822464B
:1054100001462846BDE8384000F018B8012B0AD0F4
:10542000591C03D1162303600120E7E7002142F84D
:105430002410204698470020E0E70000024B014678
:105440001868FFF7D2BF00BF1800002038B5074D1D
:1054500000230446084611462B60FDF799FA431CC9
:1054600002D12B6803B1236038BD00BF480400207F
:10547000FDF78CBA2DE9F0478C468E46089E1546FE
:1054800004461946002B40F0D080724547D9B2FA45
:1054900082F74FB1C7F120030EFA07FC20FA03F39D
:1054A000BD4043EA0C0CBC404FEA154EA8B2BCFB11
:1054B000FEF8230C0EFB18CC08FB00F943EA0C4362
:1054C000994528D9EB1808F1FF3204D2994502D941
:1054D000A8F102022B44A3EB0903A4B2B3FBFEFC28
:1054E0000EFB1C330CFB00F044EA0344A04214D929
:1054F0002C190CF1FF3304D2A04202D9ACF1020303
:105500002C44241A43EA02401EB1FC4000233460BC
:105510007360BDE8F0874246DDE76346F1E7002AA5
:1055200079D0B2FA82F3002B3FD01946C1F12003A3
:1055300002FA01F52EFA03F20EFA01FE20FA03F345
:1055400043EA0E034FEA154E00FA01F4B2FBFEFCEB
:10555000AFB20EFB1C201A0C0CFB07F842EA00420B
:1055600090455AD9AA180CF1FF3004D2904502D9BF
:10557000ACF102002A44A2EB08029BB2B2FBFEFC93
:105580000EFB1C220CFB07F743EA02439F4246D95D
:10559000EB180CF1FF3204D29F4202D9ACF10202A7
:1055A0002B44DB1B42EA004202E0AEEB0203012285
:1055B0004FEA154EAFB2B3FBFEFC200C0EFB1C33C2
:1055C0000CFB07F840EA034398452AD9EB180CF185
:1055D000FF3004D2984502D9ACF102002B44A3EB72
:1055E0000803A4B2B3FBFEFC0EFB1C330CFB07F755
:1055F00044EA0344A74216D92C190CF1FF3304D214
:10560000A74202D9ACF102032C44E41B43EA004058
:105610000F46114678E71F2188E76046ABE76246F0
:10562000BFE76046DBE76346EFE7734506D916B987
:10563000002108466DE7C6E9000EF9E7B3FA83F7E3
:1056400087B9734501D3824207D8841A6EEB0303EE
:1056500001209C461EB900215BE73846FAE7C6E9FF
:10566000004CF8E7C7F1200CBB4022FA0CF51D43B3
:1056700020FA0CF12EFA0CF30EFA07FE41EA0E01A5
:105680004FEA154900FA07F4B3FBF9F81FFA85FE53
:1056900009FB18300B0C08FB0EFA43EA00439A454D
:1056A00002FA07F240D9EB1808F1FF3004D29A450C
:1056B00002D9A8F102002B44A3EB0A0389B2B3FB81
:1056C000F9F809FB183308FB0EFE41EA03418E4549
:1056D0002CD9691808F1FF3304D28E4502D9A8F1FC
:1056E0000203294443EA0040A0FB0298A1EB0E010B
:1056F0004145CE46434602D306D14C4504D2B9EBD0
:10570000020E68EB05030138002EA4D0B4EB0E02A4
:1057100061EB030101FA0CFC22FA07F34CEA0303E4
:10572000F940C6E9003196E74046C5E74346D9E768
:10573000F8B500BFF8BC08BC9E467047F8B500BF7E
:08574000F8BC08BC9E4670474E
:105748000A5354415254000025752C000A2C0000BD
:10575800454E4400A0860100400D0300801A060053
:1057680000350C0040420F0080841E0000093D00F7
:1057780000127A000024F40000366E010048E801A7
:10578800006CDC02000000000102030400000000BD
:10579800000000000102030406070809494E4600FC
:1057A800696E66004E414E006E616E003000303109
:1057B8003233343536373839414243444546003070
:1057C800313233343536373839616263646566009F
:1057D800496E66696E697479004E614E005245459E
:1057E8004E54206D616C6C6F6320737563636565DF
:1057F800646564002E2E2F2E2E2F2E2E2F2E2E2F48
:105808002E2E2F2E2E2F6E65776C69622D342E3436
:105818002E302E32303233313233312F6E65776C81
:1058280069622F6C6962632F7374646C69622F6498
:10583800746F612E630042616C6C6F6320737563D3
:10584800636565646564002E2E2F2E2E2F2E2E2F55
:105858002E2E2F2E2E2F2E2E2F6E65776C69622DF1
:10586800342E342E302E32303233313233312F6EE3
:1058780065776C69622F6C6962632F7374646C69F5
:10588800622F6D707265632E6300232D302B20000C
:10589800686C4C00656667454647004300504F53A7
:1058A8004958002E002C2066756E6374696F6E3A35
:1058B8002000617373657274696F6E2022257322EC
:1058C800206661696C65643A2066696C65202225EA
:1058D80073222C206C696E65202564257325730A54
:1058E8000000000005000000190000007D00000015
:1058F8000080E03779C34143176E05B5B5B89346C4
:10590800F5F93FE9034F384D321D30F94877825A8F
:105918003CBF737FDD4F1575000000000000F03FAD
:105928000000000000002440000000000000594072
:105938000000000000408F40000000000088C340C5
:1059480000000000006AF8400000000080842E413A
:1059580000000000D01263410000000084D7974186
:105968000000000065CDCD41000000205FA002428C
:10597800000000E876483742000000A2941A6D4201
:10598800000040E59C30A2420000901EC4BCD642F4
:1059980000003426F56B0C430080E03779C341439F
:1059A80000A0D8855734764300C84E676DC1AB4315
:1059B800003D9160E458E143408CB5781DAF154433
:1059C80050EFE2D6E41A4B4492D54D06CFF080440E
:1059D800F64AE1C7022DB544B49DD9794378EA4423
:1059E80000202020202020202020282828282820A7
:1059F800202020202020202020202020202020209F
:105A08002088101010101010101010101010101006
:105A180010040404040404040404041010101010F6
:105A280010104141414141410101010101010101C0
:105A38000101010101010101010101011010101012
:105A48001010424242424242020202020202020292
:105A580002020202020202020202020210101010E6
:105A6800200000000000000000000000000000000E
:105A7800000000000000000000000000000000001E
:105A8800000000000000000000000000000000000E
:105A980000000000000000000000000000000000FE
:105AA80000000000000000000000000000000000EE
:105AB80000000000000000000000000000000000DE
:105AC80000000000000000000000000000000000CE
